{
  "contractName": "CrowdFunding",
  "abi": [
    {
      "inputs": [
        {
          "internalType": "uint256",
          "name": "_goal",
          "type": "uint256"
        }
      ],
      "stateMutability": "nonpayable",
      "type": "constructor"
    },
    {
      "inputs": [
        {
          "internalType": "address",
          "name": "",
          "type": "address"
        }
      ],
      "name": "contributions",
      "outputs": [
        {
          "internalType": "uint256",
          "name": "",
          "type": "uint256"
        }
      ],
      "stateMutability": "view",
      "type": "function",
      "constant": true
    },
    {
      "inputs": [],
      "name": "goal",
      "outputs": [
        {
          "internalType": "uint256",
          "name": "",
          "type": "uint256"
        }
      ],
      "stateMutability": "view",
      "type": "function",
      "constant": true
    },
    {
      "inputs": [],
      "name": "owner",
      "outputs": [
        {
          "internalType": "address",
          "name": "",
          "type": "address"
        }
      ],
      "stateMutability": "view",
      "type": "function",
      "constant": true
    },
    {
      "inputs": [],
      "name": "raisedAmount",
      "outputs": [
        {
          "internalType": "uint256",
          "name": "",
          "type": "uint256"
        }
      ],
      "stateMutability": "view",
      "type": "function",
      "constant": true
    },
    {
      "inputs": [],
      "name": "contribute",
      "outputs": [],
      "stateMutability": "payable",
      "type": "function",
      "payable": true
    },
    {
      "inputs": [],
      "name": "withdrawFunds",
      "outputs": [],
      "stateMutability": "nonpayable",
      "type": "function"
    },
    {
      "inputs": [],
      "name": "refund",
      "outputs": [],
      "stateMutability": "nonpayable",
      "type": "function"
    }
  ],
  "bytecode": "0x6080604052600060025534801561001557600080fd5b50604051610a3b380380610a3b833981810160405281019061003791906100bf565b336000806101000a81548173ffffffffffffffffffffffffffffffffffffffff021916908373ffffffffffffffffffffffffffffffffffffffff16021790555080600181905550506100ec565b600080fd5b6000819050919050565b61009c81610089565b81146100a757600080fd5b50565b6000815190506100b981610093565b92915050565b6000602082840312156100d5576100d4610084565b5b60006100e3848285016100aa565b91505092915050565b610940806100fb6000396000f3fe6080604052600436106100705760003560e01c8063590e1ae31161004e578063590e1ae3146100f45780638da5cb5b1461010b578063c59ee1dc14610136578063d7bb99ba1461016157610070565b806324600fc314610075578063401938831461008c57806342e94c90146100b7575b600080fd5b34801561008157600080fd5b5061008a61016b565b005b34801561009857600080fd5b506100a16102b3565b6040516100ae9190610533565b60405180910390f35b3480156100c357600080fd5b506100de60048036038101906100d991906105b1565b6102b9565b6040516100eb9190610533565b60405180910390f35b34801561010057600080fd5b506101096102d1565b005b34801561011757600080fd5b506101206103ea565b60405161012d91906105ed565b60405180910390f35b34801561014257600080fd5b5061014b61040e565b6040516101589190610533565b60405180910390f35b610169610414565b005b60008054906101000a900473ffffffffffffffffffffffffffffffffffffffff1673ffffffffffffffffffffffffffffffffffffffff163373ffffffffffffffffffffffffffffffffffffffff16146101f9576040517f08c379a00000000000000000000000000000000000000000000000000000000081526004016101f09061068b565b60405180910390fd5b6001546002541015610240576040517f08c379a0000000000000000000000000000000000000000000000000000000008152600401610237906106f7565b60405180910390fd5b60008054906101000a900473ffffffffffffffffffffffffffffffffffffffff1673ffffffffffffffffffffffffffffffffffffffff166108fc6002549081150290604051600060405180830381858888f193505050501580156102a8573d6000803e3d6000fd5b506000600281905550565b60015481565b60036020528060005260406000206000915090505481565b60015460025411610317576040517f08c379a000000000000000000000000000000000000000000000000000000000815260040161030e90610789565b60405180910390fd5b6000600360003373ffffffffffffffffffffffffffffffffffffffff1673ffffffffffffffffffffffffffffffffffffffff1681526020019081526020016000205490506000600360003373ffffffffffffffffffffffffffffffffffffffff1673ffffffffffffffffffffffffffffffffffffffff168152602001908152602001600020819055503373ffffffffffffffffffffffffffffffffffffffff166108fc829081150290604051600060405180830381858888f193505050501580156103e6573d6000803e3d6000fd5b5050565b60008054906101000a900473ffffffffffffffffffffffffffffffffffffffff1681565b60025481565b60003411610457576040517f08c379a000000000000000000000000000000000000000000000000000000000815260040161044e9061081b565b60405180910390fd5b60015434600254610468919061086a565b11156104a9576040517f08c379a00000000000000000000000000000000000000000000000000000000081526004016104a0906108ea565b60405180910390fd5b34600360003373ffffffffffffffffffffffffffffffffffffffff1673ffffffffffffffffffffffffffffffffffffffff16815260200190815260200160002060008282546104f8919061086a565b925050819055503460026000828254610511919061086a565b92505081905550565b6000819050919050565b61052d8161051a565b82525050565b60006020820190506105486000830184610524565b92915050565b600080fd5b600073ffffffffffffffffffffffffffffffffffffffff82169050919050565b600061057e82610553565b9050919050565b61058e81610573565b811461059957600080fd5b50565b6000813590506105ab81610585565b92915050565b6000602082840312156105c7576105c661054e565b5b60006105d58482850161059c565b91505092915050565b6105e781610573565b82525050565b600060208201905061060260008301846105de565b92915050565b600082825260208201905092915050565b7f4f6e6c79206f776e65722063616e20636865636b2072616973656420616d6f7560008201527f6e742e0000000000000000000000000000000000000000000000000000000000602082015250565b6000610675602383610608565b915061068082610619565b604082019050919050565b600060208201905081810360008301526106a481610668565b9050919050565b7f476f616c20686173206e6f74206265656e207265616368656420796574000000600082015250565b60006106e1601d83610608565b91506106ec826106ab565b602082019050919050565b60006020820190508181036000830152610710816106d4565b9050919050565b7f5468652063726f776466756e64696e672063616d706169676e2077617320737560008201527f636365737366756c2e0000000000000000000000000000000000000000000000602082015250565b6000610773602983610608565b915061077e82610717565b604082019050919050565b600060208201905081810360008301526107a281610766565b9050919050565b7f436f6e747269627574696f6e20616d6f756e74206d757374206265206772656160008201527f746572207468616e203000000000000000000000000000000000000000000000602082015250565b6000610805602a83610608565b9150610810826107a9565b604082019050919050565b60006020820190508181036000830152610834816107f8565b9050919050565b7f4e487b7100000000000000000000000000000000000000000000000000000000600052601160045260246000fd5b60006108758261051a565b91506108808361051a565b92508282019050808211156108985761089761083b565b5b92915050565b7f476f616c2068617320616c7265616479206265656e2072656163686564000000600082015250565b60006108d4601d83610608565b91506108df8261089e565b602082019050919050565b60006020820190508181036000830152610903816108c7565b905091905056fea26469706673582212209d68223a4cb0ae68b3820279f0e0e7fa9082b55179d543e73b6443b0e0b31c5164736f6c63430008130033",
  "immutableReferences": {},
  "source": "// SPDX-License-Identifier: MIT\npragma solidity 0.8.19;\n\ncontract CrowdFunding {\n    address public owner;         // Variable to store the owner of the crowdfunding campaign.\n    uint public goal;             // Variable to store the goal of the crowdfunding campaign.\n    uint public raisedAmount = 0; // Variable to store the total amount raised.\n    mapping(address => uint) public contributions; // Mapping to store the contributions of each address.\n\n    // Constructor - function that will be called upon contract deployment.\n    constructor(uint _goal) {\n        owner = msg.sender;\n        goal = _goal;\n    }\n\n    // Modifier - function to restrict access to a certain function.\n    modifier onlyByOwner{ \n        require(msg.sender == owner, \"Only owner can check raised amount.\");\n        _;\n    }\n\n    // contribute() - Function to contribute to the crowdfunding campaign.\n    function contribute() public payable {\n        require(msg.value > 0, \"Contribution amount must be greater than 0\");\n        require(raisedAmount + msg.value <= goal, \"Goal has already been reached\");\n\n        contributions[msg.sender] += msg.value;\n        raisedAmount += msg.value;\n    }\n\n    // withdrawFunds() - function to withdraw funds after the deadline has passed and the goal has been reached. \n    function withdrawFunds() public onlyByOwner{\n        require(raisedAmount >= goal, \"Goal has not been reached yet\");\n\n        payable(owner).transfer(raisedAmount); // Transfer the raised amount to the owner.\n        raisedAmount = 0;\n    }\n\n    // refund() - function to refund the contributions if the deadline has passed and the goal has not been reached.\n    function refund() public {\n        require(raisedAmount > goal, \"The crowdfunding campaign was successful.\");\n        \n        uint amount = contributions[msg.sender];\n        contributions[msg.sender] = 0;\n        payable(msg.sender).transfer(amount); // Refund the contribution amount to the contributor.\n    }\n}",
  "sourcePath": "/home/alifzwan/Documents/web3Lab/contracts/CrowdFunding.sol",
  "compiler": {
    "name": "solc",
    "version": "0.8.19+commit.7dd6d404.Emscripten.clang"
  },
  "schemaVersion": "3.4.16",
  "updatedAt": "2024-05-23T03:31:48.952Z",
  "networkType": "ethereum",
  "devdoc": {
    "kind": "dev",
    "methods": {},
    "version": 1
  },
  "userdoc": {
    "kind": "user",
    "methods": {},
    "version": 1
  }
}